{
  "contractName": "MoibitStorage",
  "abi": [
    {
      "inputs": [],
      "payable": false,
      "stateMutability": "nonpayable",
      "type": "constructor"
    },
    {
      "anonymous": false,
      "inputs": [
        {
          "indexed": false,
          "internalType": "string",
          "name": "UniName",
          "type": "string"
        }
      ],
      "name": "addedUni",
      "type": "event"
    },
    {
      "anonymous": false,
      "inputs": [
        {
          "indexed": false,
          "internalType": "string",
          "name": "fileName",
          "type": "string"
        },
        {
          "indexed": false,
          "internalType": "uint256",
          "name": "aadharNumber",
          "type": "uint256"
        }
      ],
      "name": "fileAdded",
      "type": "event"
    },
    {
      "anonymous": false,
      "inputs": [
        {
          "indexed": false,
          "internalType": "uint256",
          "name": "aadharNumber",
          "type": "uint256"
        }
      ],
      "name": "fileLocked",
      "type": "event"
    },
    {
      "anonymous": false,
      "inputs": [
        {
          "indexed": false,
          "internalType": "uint256",
          "name": "aadharNumber",
          "type": "uint256"
        }
      ],
      "name": "fileUnlocked",
      "type": "event"
    },
    {
      "anonymous": false,
      "inputs": [
        {
          "indexed": false,
          "internalType": "address",
          "name": "_school",
          "type": "address"
        }
      ],
      "name": "newSchool",
      "type": "event"
    },
    {
      "constant": true,
      "inputs": [
        {
          "internalType": "uint256",
          "name": "",
          "type": "uint256"
        }
      ],
      "name": "students",
      "outputs": [
        {
          "internalType": "string",
          "name": "fileName",
          "type": "string"
        },
        {
          "internalType": "string",
          "name": "fileHash",
          "type": "string"
        },
        {
          "internalType": "uint256",
          "name": "fileVersion",
          "type": "uint256"
        },
        {
          "internalType": "bool",
          "name": "lock",
          "type": "bool"
        },
        {
          "internalType": "string",
          "name": "current_owner",
          "type": "string"
        }
      ],
      "payable": false,
      "stateMutability": "view",
      "type": "function"
    },
    {
      "constant": true,
      "inputs": [
        {
          "internalType": "address",
          "name": "",
          "type": "address"
        }
      ],
      "name": "uniName",
      "outputs": [
        {
          "internalType": "string",
          "name": "",
          "type": "string"
        }
      ],
      "payable": false,
      "stateMutability": "view",
      "type": "function"
    },
    {
      "constant": false,
      "inputs": [
        {
          "internalType": "string",
          "name": "_fileName",
          "type": "string"
        },
        {
          "internalType": "string",
          "name": "_fileHash",
          "type": "string"
        },
        {
          "internalType": "uint256",
          "name": "_fileVersion",
          "type": "uint256"
        },
        {
          "internalType": "uint256",
          "name": "_aadharNumber",
          "type": "uint256"
        },
        {
          "internalType": "address",
          "name": "currentUser",
          "type": "address"
        }
      ],
      "name": "addingNewFile",
      "outputs": [],
      "payable": false,
      "stateMutability": "nonpayable",
      "type": "function"
    },
    {
      "constant": false,
      "inputs": [
        {
          "internalType": "address",
          "name": "currentUser",
          "type": "address"
        },
        {
          "internalType": "address",
          "name": "newUser",
          "type": "address"
        }
      ],
      "name": "changeSchool",
      "outputs": [],
      "payable": false,
      "stateMutability": "nonpayable",
      "type": "function"
    },
    {
      "constant": true,
      "inputs": [
        {
          "internalType": "address",
          "name": "user",
          "type": "address"
        }
      ],
      "name": "whichPage",
      "outputs": [
        {
          "internalType": "bool",
          "name": "",
          "type": "bool"
        }
      ],
      "payable": false,
      "stateMutability": "view",
      "type": "function"
    },
    {
      "constant": true,
      "inputs": [
        {
          "internalType": "address",
          "name": "_user",
          "type": "address"
        }
      ],
      "name": "setOrNot",
      "outputs": [
        {
          "internalType": "bool",
          "name": "",
          "type": "bool"
        }
      ],
      "payable": false,
      "stateMutability": "view",
      "type": "function"
    },
    {
      "constant": false,
      "inputs": [
        {
          "internalType": "string",
          "name": "_uniName",
          "type": "string"
        },
        {
          "internalType": "address",
          "name": "user",
          "type": "address"
        }
      ],
      "name": "setCollege",
      "outputs": [],
      "payable": false,
      "stateMutability": "nonpayable",
      "type": "function"
    },
    {
      "constant": true,
      "inputs": [
        {
          "internalType": "uint256",
          "name": "_aadharNumber",
          "type": "uint256"
        },
        {
          "internalType": "address",
          "name": "_user",
          "type": "address"
        }
      ],
      "name": "checkAccess",
      "outputs": [
        {
          "internalType": "bool",
          "name": "",
          "type": "bool"
        }
      ],
      "payable": false,
      "stateMutability": "view",
      "type": "function"
    },
    {
      "constant": true,
      "inputs": [
        {
          "internalType": "uint256",
          "name": "_aadharNumber",
          "type": "uint256"
        }
      ],
      "name": "getStudentFile",
      "outputs": [
        {
          "components": [
            {
              "internalType": "string",
              "name": "fileName",
              "type": "string"
            },
            {
              "internalType": "string",
              "name": "fileHash",
              "type": "string"
            },
            {
              "internalType": "uint256",
              "name": "fileVersion",
              "type": "uint256"
            },
            {
              "internalType": "bool",
              "name": "lock",
              "type": "bool"
            },
            {
              "internalType": "string",
              "name": "current_owner",
              "type": "string"
            }
          ],
          "internalType": "struct MoibitStorage.student",
          "name": "studentFile",
          "type": "tuple"
        }
      ],
      "payable": false,
      "stateMutability": "view",
      "type": "function"
    },
    {
      "constant": true,
      "inputs": [
        {
          "internalType": "uint256",
          "name": "_aadharNumber",
          "type": "uint256"
        }
      ],
      "name": "getUni",
      "outputs": [
        {
          "internalType": "string",
          "name": "uni",
          "type": "string"
        }
      ],
      "payable": false,
      "stateMutability": "view",
      "type": "function"
    },
    {
      "constant": true,
      "inputs": [
        {
          "internalType": "address",
          "name": "_user",
          "type": "address"
        },
        {
          "internalType": "uint256",
          "name": "_aadharNumber",
          "type": "uint256"
        }
      ],
      "name": "checkOwner",
      "outputs": [
        {
          "internalType": "bool",
          "name": "",
          "type": "bool"
        }
      ],
      "payable": false,
      "stateMutability": "view",
      "type": "function"
    },
    {
      "constant": false,
      "inputs": [
        {
          "internalType": "uint256",
          "name": "_aadharNumber",
          "type": "uint256"
        },
        {
          "internalType": "address",
          "name": "user",
          "type": "address"
        }
      ],
      "name": "lockStudentFile",
      "outputs": [],
      "payable": false,
      "stateMutability": "nonpayable",
      "type": "function"
    },
    {
      "constant": false,
      "inputs": [
        {
          "internalType": "string",
          "name": "_fileName",
          "type": "string"
        },
        {
          "internalType": "string",
          "name": "_fileHash",
          "type": "string"
        },
        {
          "internalType": "uint256",
          "name": "_fileVersion",
          "type": "uint256"
        },
        {
          "internalType": "uint256",
          "name": "_aadharNumber",
          "type": "uint256"
        },
        {
          "internalType": "address",
          "name": "currentUser",
          "type": "address"
        }
      ],
      "name": "unlockStudentFile",
      "outputs": [],
      "payable": false,
      "stateMutability": "nonpayable",
      "type": "function"
    }
  ],
  "bytecode": "0x608060405234801561001057600080fd5b5033600260006101000a81548173ffffffffffffffffffffffffffffffffffffffff021916908373ffffffffffffffffffffffffffffffffffffffff160217905550612856806100616000396000f3fe608060405234801561001057600080fd5b50600436106100cf5760003560e01c806351cf901e1161008c5780639525574e116100665780639525574e1461024c578063b56ad86914610268578063cfddda0014610298578063d13c8703146102b4576100cf565b806351cf901e146101e45780635a9281e81461021457806390549a6c14610230576100cf565b806301cdc3c9146100d457806306ead22e1461010457806309f7438614610138578063271bb5741461016857806336a6e387146101845780634117fd68146101b4575b600080fd5b6100ee60048036036100e99190810190611ba4565b6102e4565b6040516100fb91906123c3565b60405180910390f35b61011e60048036036101199190810190611cdb565b6103a0565b60405161012f959493929190612452565b60405180910390f35b610152600480360361014d9190810190611cdb565b6105ab565b60405161015f9190612400565b60405180910390f35b610182600480360361017d9190810190611be0565b610662565b005b61019e60048036036101999190810190611cdb565b61080a565b6040516101ab919061265c565b60405180910390f35b6101ce60048036036101c99190810190611b3f565b610a41565b6040516101db91906123c3565b60405180910390f35b6101fe60048036036101f99190810190611b3f565b610aac565b60405161020b91906123c3565b60405180910390f35b61022e60048036036102299190810190611c34565b610c09565b005b61024a60048036036102459190810190611b68565b610e37565b005b61026660048036036102619190810190611d04565b610f67565b005b610282600480360361027d9190810190611b3f565b61111a565b60405161028f91906123de565b60405180910390f35b6102b260048036036102ad9190810190611c34565b6111ca565b005b6102ce60048036036102c99190810190611d04565b6114a6565b6040516102db91906123c3565b60405180910390f35b6000600160008473ffffffffffffffffffffffffffffffffffffffff1673ffffffffffffffffffffffffffffffffffffffff1681526020019081526020016000206040516020016103359190612391565b604051602081830303815290604052805190602001206000808481526020019081526020016000206004016040516020016103709190612391565b604051602081830303815290604052805190602001201415610395576001905061039a565b600090505b92915050565b6000602052806000526040600020600091509050806000018054600181600116156101000203166002900480601f01602080910402602001604051908101604052809291908181526020018280546001816001161561010002031660029004801561044c5780601f106104215761010080835404028352916020019161044c565b820191906000526020600020905b81548152906001019060200180831161042f57829003601f168201915b505050505090806001018054600181600116156101000203166002900480601f0160208091040260200160405190810160405280929190818152602001828054600181600116156101000203166002900480156104ea5780601f106104bf576101008083540402835291602001916104ea565b820191906000526020600020905b8154815290600101906020018083116104cd57829003601f168201915b5050505050908060020154908060030160009054906101000a900460ff1690806004018054600181600116156101000203166002900480601f0160208091040260200160405190810160405280929190818152602001828054600181600116156101000203166002900480156105a15780601f10610576576101008083540402835291602001916105a1565b820191906000526020600020905b81548152906001019060200180831161058457829003601f168201915b5050505050905085565b60606000808381526020019081526020016000206004018054600181600116156101000203166002900480601f0160208091040260200160405190810160405280929190818152602001828054600181600116156101000203166002900480156106565780601f1061062b57610100808354040283529160200191610656565b820191906000526020600020905b81548152906001019060200180831161063957829003601f168201915b50505050509050919050565b60008251116106a6576040517f08c379a000000000000000000000000000000000000000000000000000000000815260040161069d906125fc565b60405180910390fd5b6000600160008373ffffffffffffffffffffffffffffffffffffffff1673ffffffffffffffffffffffffffffffffffffffff168152602001908152602001600020805460018160011615610100020316600290049050111561073d576040517f08c379a00000000000000000000000000000000000000000000000000000000081526004016107349061257c565b60405180910390fd5b81600160008373ffffffffffffffffffffffffffffffffffffffff1673ffffffffffffffffffffffffffffffffffffffff16815260200190815260200160002090805190602001906107909291906118e4565b507f82022b778d070ee888b8f3bcaed6ac374e365abb2c93f310b612467cbd63dd8e600160008373ffffffffffffffffffffffffffffffffffffffff1673ffffffffffffffffffffffffffffffffffffffff1681526020019081526020016000206040516107fe91906124ba565b60405180910390a15050565b610812611964565b6000808381526020019081526020016000206040518060a0016040529081600082018054600181600116156101000203166002900480601f0160208091040260200160405190810160405280929190818152602001828054600181600116156101000203166002900480156108c85780601f1061089d576101008083540402835291602001916108c8565b820191906000526020600020905b8154815290600101906020018083116108ab57829003601f168201915b50505050508152602001600182018054600181600116156101000203166002900480601f01602080910402602001604051908101604052809291908181526020018280546001816001161561010002031660029004801561096a5780601f1061093f5761010080835404028352916020019161096a565b820191906000526020600020905b81548152906001019060200180831161094d57829003601f168201915b50505050508152602001600282015481526020016003820160009054906101000a900460ff16151515158152602001600482018054600181600116156101000203166002900480601f016020809104026020016040519081016040528092919081815260200182805460018160011615610100020316600290048015610a315780601f10610a0657610100808354040283529160200191610a31565b820191906000526020600020905b815481529060010190602001808311610a1457829003601f168201915b5050505050815250509050919050565b6000600260009054906101000a900473ffffffffffffffffffffffffffffffffffffffff1673ffffffffffffffffffffffffffffffffffffffff168273ffffffffffffffffffffffffffffffffffffffff161415610aa25760019050610aa7565b600090505b919050565b60006060600160008473ffffffffffffffffffffffffffffffffffffffff1673ffffffffffffffffffffffffffffffffffffffff1681526020019081526020016000208054600181600116156101000203166002900480601f016020809104026020016040519081016040528092919081815260200182805460018160011615610100020316600290048015610b835780601f10610b5857610100808354040283529160200191610b83565b820191906000526020600020905b815481529060010190602001808311610b6657829003601f168201915b50505050509050600081511115610b9e576001915050610c04565b8273ffffffffffffffffffffffffffffffffffffffff16600260009054906101000a900473ffffffffffffffffffffffffffffffffffffffff1673ffffffffffffffffffffffffffffffffffffffff161415610bfe576001915050610c04565b60009150505b919050565b6000808381526020019081526020016000206004018054600181600116156101000203166002900480601f016020809104026020016040519081016040528092919081815260200182805460018160011615610100020316600290048015610cb25780601f10610c8757610100808354040283529160200191610cb2565b820191906000526020600020905b815481529060010190602001808311610c9557829003601f168201915b50505050508181604051602001610cc9919061237a565b60405160208183030381529060405280519060200120600160008373ffffffffffffffffffffffffffffffffffffffff1673ffffffffffffffffffffffffffffffffffffffff168152602001908152602001600020604051602001610d2e9190612391565b6040516020818303038152906040528051906020012014610d84576040517f08c379a0000000000000000000000000000000000000000000000000000000008152600401610d7b906124dc565b60405180910390fd5b600080600086815260200190815260200160002060030160006101000a81548160ff021916908315150217905550604051806020016040528060008152506000808681526020019081526020016000206004019080519060200190610dea9291906118e4565b50610df78787878761169b565b7f34c2199a51f8208f3b6b271761f4e93b95a9134571137a7a62522a98569e27f184604051610e26919061267e565b60405180910390a150505050505050565b818073ffffffffffffffffffffffffffffffffffffffff16600260009054906101000a900473ffffffffffffffffffffffffffffffffffffffff1673ffffffffffffffffffffffffffffffffffffffff1614610ec8576040517f08c379a0000000000000000000000000000000000000000000000000000000008152600401610ebf9061259c565b60405180910390fd5b81600260006101000a81548173ffffffffffffffffffffffffffffffffffffffff021916908373ffffffffffffffffffffffffffffffffffffffff1602179055507fcd283d44b800105f474204d2aad70f286ce556fcdfcbd85ac112412259f2c374600260009054906101000a900473ffffffffffffffffffffffffffffffffffffffff16604051610f5a91906123a8565b60405180910390a1505050565b6000151560008084815260200190815260200160002060030160009054906101000a900460ff16151514610fd0576040517f08c379a0000000000000000000000000000000000000000000000000000000008152600401610fc79061263c565b60405180910390fd5b6000806000848152602001908152602001600020600401805460018160011615610100020316600290049050111561103d576040517f08c379a0000000000000000000000000000000000000000000000000000000008152600401611034906124fc565b60405180910390fd5b600160008084815260200190815260200160002060030160006101000a81548160ff021916908315150217905550600160008273ffffffffffffffffffffffffffffffffffffffff1673ffffffffffffffffffffffffffffffffffffffff16815260200190815260200160002060008084815260200190815260200160002060040190805460018160011615610100020316600290046110de929190611995565b507fd2e91334d2498287c7c1382c2cab747b5e240e8aa469e6a24aef657f7609f5d98260405161110e919061267e565b60405180910390a15050565b60016020528060005260406000206000915090508054600181600116156101000203166002900480601f0160208091040260200160405190810160405280929190818152602001828054600181600116156101000203166002900480156111c25780601f10611197576101008083540402835291602001916111c2565b820191906000526020600020905b8154815290600101906020018083116111a557829003601f168201915b505050505081565b808073ffffffffffffffffffffffffffffffffffffffff16600260009054906101000a900473ffffffffffffffffffffffffffffffffffffffff1673ffffffffffffffffffffffffffffffffffffffff161461125b576040517f08c379a00000000000000000000000000000000000000000000000000000000081526004016112529061259c565b60405180910390fd5b600073ffffffffffffffffffffffffffffffffffffffff163373ffffffffffffffffffffffffffffffffffffffff1614156112cb576040517f08c379a00000000000000000000000000000000000000000000000000000000081526004016112c29061253c565b60405180910390fd5b600085511161130f576040517f08c379a0000000000000000000000000000000000000000000000000000000008152600401611306906125bc565b60405180910390fd5b6000865111611353576040517f08c379a000000000000000000000000000000000000000000000000000000000815260040161134a9061255c565b60405180910390fd5b60008311611396576040517f08c379a000000000000000000000000000000000000000000000000000000000815260040161138d9061261c565b60405180910390fd5b6040518060a001604052808781526020018681526020018581526020016000151581526020016040518060200160405280600081525081525060008085815260200190815260200160002060008201518160000190805190602001906113fd929190611a1c565b50602082015181600101908051906020019061141a929190611a1c565b506040820151816002015560608201518160030160006101000a81548160ff0219169083151502179055506080820151816004019080519060200190611461929190611a1c565b509050507fd9318aa0feca63cf06545a56fbc2cb5b36a05e5f60a464301d72226daadf9d658684604051611496929190612422565b60405180910390a1505050505050565b600080600160008473ffffffffffffffffffffffffffffffffffffffff1673ffffffffffffffffffffffffffffffffffffffff1681526020019081526020016000208054600181600116156101000203166002900490501161153d576040517f08c379a0000000000000000000000000000000000000000000000000000000008152600401611534906125dc565b60405180910390fd5b6000806000858152602001908152602001600020600001805460018160011615610100020316600290049050116115a9576040517f08c379a00000000000000000000000000000000000000000000000000000000081526004016115a09061251c565b60405180910390fd5b600160008373ffffffffffffffffffffffffffffffffffffffff1673ffffffffffffffffffffffffffffffffffffffff1681526020019081526020016000206040516020016115f89190612391565b604051602081830303815290604052805190602001206000808581526020019081526020016000206004016040516020016116339190612391565b6040516020818303038152906040528051906020012014156116585760009050611695565b6000151560008085815260200190815260200160002060030160009054906101000a900460ff16151514156116905760009050611695565b600190505b92915050565b600073ffffffffffffffffffffffffffffffffffffffff163373ffffffffffffffffffffffffffffffffffffffff16141561170b576040517f08c379a00000000000000000000000000000000000000000000000000000000081526004016117029061253c565b60405180910390fd5b600083511161174f576040517f08c379a0000000000000000000000000000000000000000000000000000000008152600401611746906125bc565b60405180910390fd5b6000845111611793576040517f08c379a000000000000000000000000000000000000000000000000000000000815260040161178a9061255c565b60405180910390fd5b600081116117d6576040517f08c379a00000000000000000000000000000000000000000000000000000000081526004016117cd9061261c565b60405180910390fd5b6040518060a0016040528085815260200184815260200183815260200160001515815260200160405180602001604052806000815250815250600080838152602001908152602001600020600082015181600001908051906020019061183d929190611a1c565b50602082015181600101908051906020019061185a929190611a1c565b506040820151816002015560608201518160030160006101000a81548160ff02191690831515021790555060808201518160040190805190602001906118a1929190611a1c565b509050507fd9318aa0feca63cf06545a56fbc2cb5b36a05e5f60a464301d72226daadf9d6584826040516118d6929190612422565b60405180910390a150505050565b828054600181600116156101000203166002900490600052602060002090601f016020900481019282601f1061192557805160ff1916838001178555611953565b82800160010185558215611953579182015b82811115611952578251825591602001919060010190611937565b5b5090506119609190611a9c565b5090565b6040518060a00160405280606081526020016060815260200160008152602001600015158152602001606081525090565b828054600181600116156101000203166002900490600052602060002090601f016020900481019282601f106119ce5780548555611a0b565b82800160010185558215611a0b57600052602060002091601f016020900482015b82811115611a0a5782548255916001019190600101906119ef565b5b509050611a189190611a9c565b5090565b828054600181600116156101000203166002900490600052602060002090601f016020900481019282601f10611a5d57805160ff1916838001178555611a8b565b82800160010185558215611a8b579182015b82811115611a8a578251825591602001919060010190611a6f565b5b509050611a989190611a9c565b5090565b611abe91905b80821115611aba576000816000905550600101611aa2565b5090565b90565b600081359050611ad0816127e5565b92915050565b600082601f830112611ae757600080fd5b8135611afa611af5826126c6565b612699565b91508082526020830160208301858383011115611b1657600080fd5b611b21838284612792565b50505092915050565b600081359050611b39816127fc565b92915050565b600060208284031215611b5157600080fd5b6000611b5f84828501611ac1565b91505092915050565b60008060408385031215611b7b57600080fd5b6000611b8985828601611ac1565b9250506020611b9a85828601611ac1565b9150509250929050565b60008060408385031215611bb757600080fd5b6000611bc585828601611ac1565b9250506020611bd685828601611b2a565b9150509250929050565b60008060408385031215611bf357600080fd5b600083013567ffffffffffffffff811115611c0d57600080fd5b611c1985828601611ad6565b9250506020611c2a85828601611ac1565b9150509250929050565b600080600080600060a08688031215611c4c57600080fd5b600086013567ffffffffffffffff811115611c6657600080fd5b611c7288828901611ad6565b955050602086013567ffffffffffffffff811115611c8f57600080fd5b611c9b88828901611ad6565b9450506040611cac88828901611b2a565b9350506060611cbd88828901611b2a565b9250506080611cce88828901611ac1565b9150509295509295909350565b600060208284031215611ced57600080fd5b6000611cfb84828501611b2a565b91505092915050565b60008060408385031215611d1757600080fd5b6000611d2585828601611b2a565b9250506020611d3685828601611ac1565b9150509250929050565b611d498161274a565b82525050565b611d588161275c565b82525050565b611d678161275c565b82525050565b6000611d7882612712565b611d82818561272e565b9350611d928185602086016127a1565b611d9b816127d4565b840191505092915050565b6000611db182612712565b611dbb818561273f565b9350611dcb8185602086016127a1565b80840191505092915050565b6000611de282612707565b611dec818561271d565b9350611dfc8185602086016127a1565b611e05816127d4565b840191505092915050565b6000611e1b82612707565b611e25818561272e565b9350611e358185602086016127a1565b611e3e816127d4565b840191505092915050565b600081546001811660008114611e665760018114611e8c57611ed0565b607f6002830416611e77818761272e565b955060ff198316865260208601935050611ed0565b60028204611e9a818761272e565b9550611ea5856126f2565b60005b82811015611ec757815481890152600182019150602081019050611ea8565b80880195505050505b505092915050565b600081546001811660008114611ef55760018114611f1a57611f5e565b607f6002830416611f06818761273f565b955060ff1983168652808601935050611f5e565b60028204611f28818761273f565b9550611f33856126f2565b60005b82811015611f5557815481890152600182019150602081019050611f36565b82880195505050505b505092915050565b6000611f7360178361272e565b91507f596f7520646f6e2774206f776e207468652066696c65200000000000000000006000830152602082019050919050565b6000611fb360278361272e565b91507f46696c65206973206c6f636b656420627920736f6d656f6e6520656c7365207360008301527f74696c6c2e2e2e000000000000000000000000000000000000000000000000006020830152604082019050919050565b600061201960158361272e565b91507f53747564656e7420646f65736e277420657869737400000000000000000000006000830152602082019050919050565b600061205960188361272e565b91507f61646472657373206e6f7420617661696c61626c652e2e2e00000000000000006000830152602082019050919050565b6000612099601b8361272e565b91507f4e616d65206f662066696c652069732072657175697265642e2e2e00000000006000830152602082019050919050565b60006120d9601e8361272e565b91507f556e6976657273697479206e616d6520616c72656164792065786973747300006000830152602082019050919050565b6000612119602a8361272e565b91507f596f7520646f6e27742068617665207468652072696768747320746f2074686960008301527f732066756e6374696f6e000000000000000000000000000000000000000000006020830152604082019050919050565b600061217f601b8361272e565b91507f48617368206f662066696c652069732072657175697265642e2e2e00000000006000830152602082019050919050565b60006121bf60188361272e565b91507f556e697665727369747920646f65736e277420657869737400000000000000006000830152602082019050919050565b60006121ff60188361272e565b91507f556e6976657273697479206e616d6520697320656d70747900000000000000006000830152602082019050919050565b600061223f60278361272e565b91507f416164686172206e756d626572206f662073747564656e74206973207265717560008301527f697265642e2e2e000000000000000000000000000000000000000000000000006020830152604082019050919050565b60006122a560198361272e565b91507f46696c6520697320616c7265616479206c6f636b65642e2e2e000000000000006000830152602082019050919050565b600060a08301600083015184820360008601526122f58282611dd7565b9150506020830151848203602086015261230f8282611dd7565b9150506040830151612324604086018261235c565b5060608301516123376060860182611d4f565b506080830151848203608086015261234f8282611dd7565b9150508091505092915050565b61236581612788565b82525050565b61237481612788565b82525050565b60006123868284611da6565b915081905092915050565b600061239d8284611ed8565b915081905092915050565b60006020820190506123bd6000830184611d40565b92915050565b60006020820190506123d86000830184611d5e565b92915050565b600060208201905081810360008301526123f88184611e10565b905092915050565b6000602082019050818103600083015261241a8184611d6d565b905092915050565b6000604082019050818103600083015261243c8185611d6d565b905061244b602083018461236b565b9392505050565b600060a082019050818103600083015261246c8188611e10565b905081810360208301526124808187611e10565b905061248f604083018661236b565b61249c6060830185611d5e565b81810360808301526124ae8184611e10565b90509695505050505050565b600060208201905081810360008301526124d48184611e49565b905092915050565b600060208201905081810360008301526124f581611f66565b9050919050565b6000602082019050818103600083015261251581611fa6565b9050919050565b600060208201905081810360008301526125358161200c565b9050919050565b600060208201905081810360008301526125558161204c565b9050919050565b600060208201905081810360008301526125758161208c565b9050919050565b60006020820190508181036000830152612595816120cc565b9050919050565b600060208201905081810360008301526125b58161210c565b9050919050565b600060208201905081810360008301526125d581612172565b9050919050565b600060208201905081810360008301526125f5816121b2565b9050919050565b60006020820190508181036000830152612615816121f2565b9050919050565b6000602082019050818103600083015261263581612232565b9050919050565b6000602082019050818103600083015261265581612298565b9050919050565b6000602082019050818103600083015261267681846122d8565b905092915050565b6000602082019050612693600083018461236b565b92915050565b6000604051905081810181811067ffffffffffffffff821117156126bc57600080fd5b8060405250919050565b600067ffffffffffffffff8211156126dd57600080fd5b601f19601f8301169050602081019050919050565b60008190508160005260206000209050919050565b600081519050919050565b600081519050919050565b600082825260208201905092915050565b600082825260208201905092915050565b600081905092915050565b600061275582612768565b9050919050565b60008115159050919050565b600073ffffffffffffffffffffffffffffffffffffffff82169050919050565b6000819050919050565b82818337600083830152505050565b60005b838110156127bf5780820151818401526020810190506127a4565b838111156127ce576000848401525b50505050565b6000601f19601f8301169050919050565b6127ee8161274a565b81146127f957600080fd5b50565b61280581612788565b811461281057600080fd5b5056fea365627a7a7231582029b625e947ee3dde159a489176054fbd7fe9dca088ed2d010de18423b3af2bca6c6578706572696d656e74616cf564736f6c63430005100040",
  "source": "pragma solidity ^0.5.16;\r\npragma experimental ABIEncoderV2;\r\n\r\ncontract MoibitStorage{\r\n\r\n    struct student{\r\n        string fileName;\r\n        string fileHash;\r\n        uint fileVersion;\r\n        bool lock;\r\n        string current_owner;\r\n    }\r\n\r\n    mapping(uint => student) public students;\r\n    mapping(address => string) public uniName;\r\n    address private _school;\r\n\r\n    event fileAdded(string fileName, uint aadharNumber);\r\n    event fileUnlocked(uint aadharNumber);\r\n    event fileLocked(uint aadharNumber);\r\n    event addedUni(string UniName);\r\n    event newSchool(address _school);\r\n\r\n    constructor() public{\r\n        _school = msg.sender;\r\n    }\r\n\r\n    function addingNewFile(string memory _fileName, string memory _fileHash, uint _fileVersion, uint _aadharNumber, address currentUser) public onlySchool(currentUser){\r\n        require(msg.sender != address(0), 'address not available...');\r\n        require(bytes(_fileHash).length > 0, 'Hash of file is required...');\r\n        require(bytes(_fileName).length > 0, 'Name of file is required...');\r\n        require(_aadharNumber > 0, 'Aadhar number of student is required...');\r\n        students[_aadharNumber] = student(_fileName, _fileHash, _fileVersion, false, '');\r\n        emit fileAdded(_fileName, _aadharNumber);\r\n    }\r\n\r\n    function changeSchool(address currentUser, address newUser) public onlySchool(currentUser){\r\n        _school = newUser;\r\n        emit newSchool(_school);\r\n    }\r\n\r\n    function whichPage(address user) public view returns(bool){\r\n        if(user == _school)\r\n        {\r\n            return true;\r\n        }\r\n        return false;\r\n    }\r\n\r\n    modifier onlyOwner(string memory _uniName, address currentUser){\r\n        require(keccak256(abi.encodePacked(uniName[currentUser])) == keccak256(abi.encodePacked(_uniName)), \"You don't own the file \");\r\n        _;\r\n    }\r\n\r\n    modifier onlySchool(address currentUser)\r\n    {\r\n        require(_school == currentUser, \"You don't have the rights to this function\");\r\n        _;\r\n    }\r\n\r\n    function setOrNot(address _user) public view returns(bool){\r\n        string memory _uniName = uniName[_user];\r\n        if(bytes(_uniName).length > 0){\r\n            return true;\r\n        } else if(_school == _user){\r\n            return true;\r\n        }\r\n        return false;\r\n    }\r\n\r\n    function setCollege(string memory _uniName, address user) public {\r\n        require(bytes(_uniName).length > 0, \"University name is empty\");\r\n        require(bytes(uniName[user]).length <= 0 , \"University name already exists\");\r\n        uniName[user] = _uniName;\r\n        emit addedUni(uniName[user]);\r\n    }\r\n    \r\n    function checkAccess(uint _aadharNumber, address _user) public view returns(bool){\r\n        //checks if the uni exists in the list or not\r\n        require(bytes(uniName[_user]).length > 0 , \"University doesn't exist\");\r\n        //checks if the student searching for exists or not \r\n        require(bytes(students[_aadharNumber].fileName).length > 0, \"Student doesn't exist\");\r\n\r\n        if(keccak256(abi.encodePacked(students[_aadharNumber].current_owner)) == keccak256(abi.encodePacked(uniName[_user]))){\r\n            return false;\r\n        }\r\n        else if(students[_aadharNumber].lock == false){\r\n            return false;\r\n        }\r\n        else return true;\r\n    } \r\n\r\n    function getStudentFile(uint _aadharNumber) public view returns(student memory studentFile){\r\n        return students[_aadharNumber];\r\n    }\r\n\r\n    function getUni(uint _aadharNumber) public view returns(string memory uni){\r\n        return students[_aadharNumber].current_owner;\r\n    }\r\n\r\n    function checkOwner(address _user, uint _aadharNumber) public view returns(bool){\r\n        if(keccak256(abi.encodePacked(students[_aadharNumber].current_owner)) == keccak256(abi.encodePacked(uniName[_user]))){\r\n            return true;\r\n        }\r\n        return false;\r\n    }\r\n\r\n    function lockStudentFile(uint _aadharNumber, address user) public {\r\n        require(students[_aadharNumber].lock == false, 'File is already locked...');\r\n        require(bytes(students[_aadharNumber].current_owner).length <= 0, 'File is locked by someone else still...');\r\n        students[_aadharNumber].lock = true;\r\n        students[_aadharNumber].current_owner = uniName[user];\r\n        emit fileLocked(_aadharNumber);\r\n    }\r\n\r\n    function unlockStudentFile(string memory _fileName, string memory _fileHash, uint _fileVersion, uint _aadharNumber, address currentUser) public onlyOwner(students[_aadharNumber].current_owner, currentUser){\r\n        students[_aadharNumber].lock = false;\r\n        students[_aadharNumber].current_owner = '';\r\n        updateStudentFile(_fileName, _fileHash, _fileVersion, _aadharNumber);\r\n        emit fileUnlocked(_aadharNumber);\r\n    }\r\n\r\n    function updateStudentFile(string memory _fileName, string memory _fileHash, uint _fileVersion, uint _aadharNumber) internal {\r\n        require(msg.sender != address(0), 'address not available...');\r\n        require(bytes(_fileHash).length > 0, 'Hash of file is required...');\r\n        require(bytes(_fileName).length > 0, 'Name of file is required...');\r\n        require(_aadharNumber > 0, 'Aadhar number of student is required...');\r\n        students[_aadharNumber] = student(_fileName, _fileHash, _fileVersion, false, '');\r\n        emit fileAdded(_fileName, _aadharNumber);\r\n    }\r\n}",
  "sourcePath": "C:/Users/Shameer/moibit_assignment/src/contracts/MoibitStorage.sol",
  "compiler": {
    "name": "solc",
    "version": "0.5.16+commit.9c3226ce.Emscripten.clang"
  },
  "schemaVersion": "3.3.4",
  "updatedAt": "2021-10-16T08:17:08.288Z",
  "networkType": "ethereum",
  "devdoc": {
    "methods": {}
  },
  "userdoc": {
    "methods": {}
  }
}