{
  "contractName": "MoibitStorage",
  "abi": [
    {
      "anonymous": false,
      "inputs": [
        {
          "indexed": false,
          "internalType": "string",
          "name": "fileName",
          "type": "string"
        },
        {
          "indexed": false,
          "internalType": "uint256",
          "name": "aadharNumber",
          "type": "uint256"
        }
      ],
      "name": "fileAdded",
      "type": "event"
    },
    {
      "anonymous": false,
      "inputs": [
        {
          "indexed": false,
          "internalType": "uint256",
          "name": "aadharNumber",
          "type": "uint256"
        }
      ],
      "name": "fileLocked",
      "type": "event"
    },
    {
      "anonymous": false,
      "inputs": [
        {
          "indexed": false,
          "internalType": "uint256",
          "name": "aadharNumber",
          "type": "uint256"
        }
      ],
      "name": "fileUnlocked",
      "type": "event"
    },
    {
      "constant": true,
      "inputs": [
        {
          "internalType": "uint256",
          "name": "",
          "type": "uint256"
        }
      ],
      "name": "students",
      "outputs": [
        {
          "internalType": "string",
          "name": "fileName",
          "type": "string"
        },
        {
          "internalType": "string",
          "name": "fileHash",
          "type": "string"
        },
        {
          "internalType": "uint256",
          "name": "fileVersion",
          "type": "uint256"
        },
        {
          "internalType": "bool",
          "name": "lock",
          "type": "bool"
        },
        {
          "internalType": "string",
          "name": "current_owner",
          "type": "string"
        }
      ],
      "payable": false,
      "stateMutability": "view",
      "type": "function"
    },
    {
      "constant": true,
      "inputs": [
        {
          "internalType": "address",
          "name": "",
          "type": "address"
        }
      ],
      "name": "uniName",
      "outputs": [
        {
          "internalType": "string",
          "name": "",
          "type": "string"
        }
      ],
      "payable": false,
      "stateMutability": "view",
      "type": "function"
    },
    {
      "constant": false,
      "inputs": [
        {
          "internalType": "string",
          "name": "_fileName",
          "type": "string"
        },
        {
          "internalType": "string",
          "name": "_fileHash",
          "type": "string"
        },
        {
          "internalType": "uint256",
          "name": "_fileVersion",
          "type": "uint256"
        },
        {
          "internalType": "uint256",
          "name": "_aadharNumber",
          "type": "uint256"
        }
      ],
      "name": "addingNewFile",
      "outputs": [],
      "payable": false,
      "stateMutability": "nonpayable",
      "type": "function"
    },
    {
      "constant": false,
      "inputs": [
        {
          "internalType": "string",
          "name": "_uniName",
          "type": "string"
        }
      ],
      "name": "setCollege",
      "outputs": [],
      "payable": false,
      "stateMutability": "nonpayable",
      "type": "function"
    },
    {
      "constant": true,
      "inputs": [
        {
          "internalType": "uint256",
          "name": "_aadharNumber",
          "type": "uint256"
        }
      ],
      "name": "checkAccess",
      "outputs": [
        {
          "internalType": "bool",
          "name": "",
          "type": "bool"
        }
      ],
      "payable": false,
      "stateMutability": "view",
      "type": "function"
    },
    {
      "constant": true,
      "inputs": [
        {
          "internalType": "uint256",
          "name": "_aadharNumber",
          "type": "uint256"
        }
      ],
      "name": "getStudentFile",
      "outputs": [
        {
          "components": [
            {
              "internalType": "string",
              "name": "fileName",
              "type": "string"
            },
            {
              "internalType": "string",
              "name": "fileHash",
              "type": "string"
            },
            {
              "internalType": "uint256",
              "name": "fileVersion",
              "type": "uint256"
            },
            {
              "internalType": "bool",
              "name": "lock",
              "type": "bool"
            },
            {
              "internalType": "string",
              "name": "current_owner",
              "type": "string"
            }
          ],
          "internalType": "struct MoibitStorage.student",
          "name": "studentFile",
          "type": "tuple"
        }
      ],
      "payable": false,
      "stateMutability": "view",
      "type": "function"
    },
    {
      "constant": true,
      "inputs": [
        {
          "internalType": "uint256",
          "name": "_aadharNumber",
          "type": "uint256"
        }
      ],
      "name": "getUni",
      "outputs": [
        {
          "internalType": "string",
          "name": "uni",
          "type": "string"
        }
      ],
      "payable": false,
      "stateMutability": "view",
      "type": "function"
    },
    {
      "constant": false,
      "inputs": [
        {
          "internalType": "uint256",
          "name": "_aadharNumber",
          "type": "uint256"
        }
      ],
      "name": "lockStudentFile",
      "outputs": [],
      "payable": false,
      "stateMutability": "nonpayable",
      "type": "function"
    },
    {
      "constant": false,
      "inputs": [
        {
          "internalType": "uint256",
          "name": "_aadharNumber",
          "type": "uint256"
        }
      ],
      "name": "unlockStudentFile",
      "outputs": [],
      "payable": false,
      "stateMutability": "nonpayable",
      "type": "function"
    }
  ],
  "bytecode": "0x608060405234801561001057600080fd5b50611b1e806100206000396000f3fe608060405234801561001057600080fd5b50600436106100935760003560e01c806348df677b1161006657806348df677b146101485780636e583cac14610164578063895987e214610194578063b56ad869146101b0578063dc392660146101e057610093565b806306ead22e1461009857806309f74386146100cc57806319bafabc146100fc57806336a6e38714610118575b600080fd5b6100b260048036036100ad9190810190611291565b6101fc565b6040516100c39594939291906117dc565b60405180910390f35b6100e660048036036100e19190810190611291565b610407565b6040516100f3919061178a565b60405180910390f35b61011660048036036101119190810190611291565b6104be565b005b610132600480360361012d9190810190611291565b6106a3565b60405161013f9190611924565b60405180910390f35b610162600480360361015d9190810190611291565b6108da565b005b61017e60048036036101799190810190611291565b610af6565b60405161018b919061174d565b60405180910390f35b6101ae60048036036101a991908101906111bd565b610be9565b005b6101ca60048036036101c59190810190611194565b610c40565b6040516101d79190611768565b60405180910390f35b6101fa60048036036101f591908101906111fe565b610cf0565b005b6000602052806000526040600020600091509050806000018054600181600116156101000203166002900480601f0160208091040260200160405190810160405280929190818152602001828054600181600116156101000203166002900480156102a85780601f1061027d576101008083540402835291602001916102a8565b820191906000526020600020905b81548152906001019060200180831161028b57829003601f168201915b505050505090806001018054600181600116156101000203166002900480601f0160208091040260200160405190810160405280929190818152602001828054600181600116156101000203166002900480156103465780601f1061031b57610100808354040283529160200191610346565b820191906000526020600020905b81548152906001019060200180831161032957829003601f168201915b5050505050908060020154908060030160009054906101000a900460ff1690806004018054600181600116156101000203166002900480601f0160208091040260200160405190810160405280929190818152602001828054600181600116156101000203166002900480156103fd5780601f106103d2576101008083540402835291602001916103fd565b820191906000526020600020905b8154815290600101906020018083116103e057829003601f168201915b5050505050905085565b60606000808381526020019081526020016000206004018054600181600116156101000203166002900480601f0160208091040260200160405190810160405280929190818152602001828054600181600116156101000203166002900480156104b25780601f10610487576101008083540402835291602001916104b2565b820191906000526020600020905b81548152906001019060200180831161049557829003601f168201915b50505050509050919050565b6000151560008083815260200190815260200160002060030160009054906101000a900460ff16151514610527576040517f08c379a000000000000000000000000000000000000000000000000000000000815260040161051e90611904565b60405180910390fd5b60405160200161053690611738565b604051602081830303815290604052805190602001206000808381526020019081526020016000206004016040516020016105719190611721565b60405160208183030381529060405280519060200120146105c7576040517f08c379a00000000000000000000000000000000000000000000000000000000081526004016105be90611864565b60405180910390fd5b600160008083815260200190815260200160002060030160006101000a81548160ff021916908315150217905550600160003373ffffffffffffffffffffffffffffffffffffffff1673ffffffffffffffffffffffffffffffffffffffff1681526020019081526020016000206000808381526020019081526020016000206004019080546001816001161561010002031660029004610668929190610f39565b507fd2e91334d2498287c7c1382c2cab747b5e240e8aa469e6a24aef657f7609f5d9816040516106989190611946565b60405180910390a150565b6106ab610fc0565b6000808381526020019081526020016000206040518060a0016040529081600082018054600181600116156101000203166002900480601f0160208091040260200160405190810160405280929190818152602001828054600181600116156101000203166002900480156107615780601f1061073657610100808354040283529160200191610761565b820191906000526020600020905b81548152906001019060200180831161074457829003601f168201915b50505050508152602001600182018054600181600116156101000203166002900480601f0160208091040260200160405190810160405280929190818152602001828054600181600116156101000203166002900480156108035780601f106107d857610100808354040283529160200191610803565b820191906000526020600020905b8154815290600101906020018083116107e657829003601f168201915b50505050508152602001600282015481526020016003820160009054906101000a900460ff16151515158152602001600482018054600181600116156101000203166002900480601f0160208091040260200160405190810160405280929190818152602001828054600181600116156101000203166002900480156108ca5780601f1061089f576101008083540402835291602001916108ca565b820191906000526020600020905b8154815290600101906020018083116108ad57829003601f168201915b5050505050815250509050919050565b6000808281526020019081526020016000206004018054600181600116156101000203166002900480601f0160208091040260200160405190810160405280929190818152602001828054600181600116156101000203166002900480156109835780601f1061095857610100808354040283529160200191610983565b820191906000526020600020905b81548152906001019060200180831161096657829003601f168201915b505050505080604051602001610999919061170a565b60405160208183030381529060405280519060200120600160003373ffffffffffffffffffffffffffffffffffffffff1673ffffffffffffffffffffffffffffffffffffffff1681526020019081526020016000206040516020016109fe9190611721565b6040516020818303038152906040528051906020012014610a54576040517f08c379a0000000000000000000000000000000000000000000000000000000008152600401610a4b90611844565b60405180910390fd5b600080600084815260200190815260200160002060030160006101000a81548160ff021916908315150217905550604051806020016040528060008152506000808481526020019081526020016000206004019080519060200190610aba929190610ff1565b507f34c2199a51f8208f3b6b271761f4e93b95a9134571137a7a62522a98569e27f182604051610aea9190611946565b60405180910390a15050565b6000600160003373ffffffffffffffffffffffffffffffffffffffff1673ffffffffffffffffffffffffffffffffffffffff168152602001908152602001600020604051602001610b479190611721565b60405160208183030381529060405280519060200120600080848152602001908152602001600020600401604051602001610b829190611721565b604051602081830303815290604052805190602001201415610ba75760009050610be4565b6000151560008084815260200190815260200160002060030160009054906101000a900460ff1615151415610bdf5760009050610be4565b600190505b919050565b80600160003373ffffffffffffffffffffffffffffffffffffffff1673ffffffffffffffffffffffffffffffffffffffff1681526020019081526020016000209080519060200190610c3c929190610ff1565b5050565b60016020528060005260406000206000915090508054600181600116156101000203166002900480601f016020809104026020016040519081016040528092919081815260200182805460018160011615610100020316600290048015610ce85780601f10610cbd57610100808354040283529160200191610ce8565b820191906000526020600020905b815481529060010190602001808311610ccb57829003601f168201915b505050505081565b600073ffffffffffffffffffffffffffffffffffffffff163373ffffffffffffffffffffffffffffffffffffffff161415610d60576040517f08c379a0000000000000000000000000000000000000000000000000000000008152600401610d57906118c4565b60405180910390fd5b6000835111610da4576040517f08c379a0000000000000000000000000000000000000000000000000000000008152600401610d9b906118a4565b60405180910390fd5b6000845111610de8576040517f08c379a0000000000000000000000000000000000000000000000000000000008152600401610ddf90611884565b60405180910390fd5b60008111610e2b576040517f08c379a0000000000000000000000000000000000000000000000000000000008152600401610e22906118e4565b60405180910390fd5b6040518060a00160405280858152602001848152602001838152602001600015158152602001604051806020016040528060008152508152506000808381526020019081526020016000206000820151816000019080519060200190610e92929190611071565b506020820151816001019080519060200190610eaf929190611071565b506040820151816002015560608201518160030160006101000a81548160ff0219169083151502179055506080820151816004019080519060200190610ef6929190611071565b509050507fd9318aa0feca63cf06545a56fbc2cb5b36a05e5f60a464301d72226daadf9d658482604051610f2b9291906117ac565b60405180910390a150505050565b828054600181600116156101000203166002900490600052602060002090601f016020900481019282601f10610f725780548555610faf565b82800160010185558215610faf57600052602060002091601f016020900482015b82811115610fae578254825591600101919060010190610f93565b5b509050610fbc91906110f1565b5090565b6040518060a00160405280606081526020016060815260200160008152602001600015158152602001606081525090565b828054600181600116156101000203166002900490600052602060002090601f016020900481019282601f1061103257805160ff1916838001178555611060565b82800160010185558215611060579182015b8281111561105f578251825591602001919060010190611044565b5b50905061106d91906110f1565b5090565b828054600181600116156101000203166002900490600052602060002090601f016020900481019282601f106110b257805160ff19168380011785556110e0565b828001600101855582156110e0579182015b828111156110df5782518255916020019190600101906110c4565b5b5090506110ed91906110f1565b5090565b61111391905b8082111561110f5760008160009055506001016110f7565b5090565b90565b60008135905061112581611aad565b92915050565b600082601f83011261113c57600080fd5b813561114f61114a8261198e565b611961565b9150808252602083016020830185838301111561116b57600080fd5b611176838284611a5a565b50505092915050565b60008135905061118e81611ac4565b92915050565b6000602082840312156111a657600080fd5b60006111b484828501611116565b91505092915050565b6000602082840312156111cf57600080fd5b600082013567ffffffffffffffff8111156111e957600080fd5b6111f58482850161112b565b91505092915050565b6000806000806080858703121561121457600080fd5b600085013567ffffffffffffffff81111561122e57600080fd5b61123a8782880161112b565b945050602085013567ffffffffffffffff81111561125757600080fd5b6112638782880161112b565b93505060406112748782880161117f565b92505060606112858782880161117f565b91505092959194509250565b6000602082840312156112a357600080fd5b60006112b18482850161117f565b91505092915050565b6112c381611a24565b82525050565b6112d281611a24565b82525050565b60006112e3826119da565b6112ed81856119f6565b93506112fd818560208601611a69565b61130681611a9c565b840191505092915050565b600061131c826119da565b6113268185611a07565b9350611336818560208601611a69565b80840191505092915050565b600061134d826119cf565b61135781856119e5565b9350611367818560208601611a69565b61137081611a9c565b840191505092915050565b6000611386826119cf565b61139081856119f6565b93506113a0818560208601611a69565b6113a981611a9c565b840191505092915050565b6000815460018116600081146113d157600181146113f65761143a565b607f60028304166113e28187611a07565b955060ff198316865280860193505061143a565b600282046114048187611a07565b955061140f856119ba565b60005b8281101561143157815481890152600182019150602081019050611412565b82880195505050505b505092915050565b600061144f6017836119f6565b91507f596f7520646f6e2774206f776e207468652066696c65200000000000000000006000830152602082019050919050565b600061148f6027836119f6565b91507f46696c65206973206c6f636b656420627920736f6d656f6e6520656c7365207360008301527f74696c6c2e2e2e000000000000000000000000000000000000000000000000006020830152604082019050919050565b60006114f5601b836119f6565b91507f4e616d65206f662066696c652069732072657175697265642e2e2e00000000006000830152602082019050919050565b6000611535600083611a07565b9150600082019050919050565b600061154f601b836119f6565b91507f48617368206f662066696c652069732072657175697265642e2e2e00000000006000830152602082019050919050565b600061158f6017836119f6565b91507f6164647265737320697320617661696c61626c652e2e2e0000000000000000006000830152602082019050919050565b60006115cf6027836119f6565b91507f416164686172206e756d626572206f662073747564656e74206973207265717560008301527f697265642e2e2e000000000000000000000000000000000000000000000000006020830152604082019050919050565b60006116356019836119f6565b91507f46696c6520697320616c7265616479206c6f636b65642e2e2e000000000000006000830152602082019050919050565b600060a08301600083015184820360008601526116858282611342565b9150506020830151848203602086015261169f8282611342565b91505060408301516116b460408601826116ec565b5060608301516116c760608601826112ba565b50608083015184820360808601526116df8282611342565b9150508091505092915050565b6116f581611a50565b82525050565b61170481611a50565b82525050565b60006117168284611311565b915081905092915050565b600061172d82846113b4565b915081905092915050565b600061174382611528565b9150819050919050565b600060208201905061176260008301846112c9565b92915050565b60006020820190508181036000830152611782818461137b565b905092915050565b600060208201905081810360008301526117a481846112d8565b905092915050565b600060408201905081810360008301526117c681856112d8565b90506117d560208301846116fb565b9392505050565b600060a08201905081810360008301526117f6818861137b565b9050818103602083015261180a818761137b565b905061181960408301866116fb565b61182660608301856112c9565b8181036080830152611838818461137b565b90509695505050505050565b6000602082019050818103600083015261185d81611442565b9050919050565b6000602082019050818103600083015261187d81611482565b9050919050565b6000602082019050818103600083015261189d816114e8565b9050919050565b600060208201905081810360008301526118bd81611542565b9050919050565b600060208201905081810360008301526118dd81611582565b9050919050565b600060208201905081810360008301526118fd816115c2565b9050919050565b6000602082019050818103600083015261191d81611628565b9050919050565b6000602082019050818103600083015261193e8184611668565b905092915050565b600060208201905061195b60008301846116fb565b92915050565b6000604051905081810181811067ffffffffffffffff8211171561198457600080fd5b8060405250919050565b600067ffffffffffffffff8211156119a557600080fd5b601f19601f8301169050602081019050919050565b60008190508160005260206000209050919050565b600081519050919050565b600081519050919050565b600082825260208201905092915050565b600082825260208201905092915050565b600081905092915050565b6000611a1d82611a30565b9050919050565b60008115159050919050565b600073ffffffffffffffffffffffffffffffffffffffff82169050919050565b6000819050919050565b82818337600083830152505050565b60005b83811015611a87578082015181840152602081019050611a6c565b83811115611a96576000848401525b50505050565b6000601f19601f8301169050919050565b611ab681611a12565b8114611ac157600080fd5b50565b611acd81611a50565b8114611ad857600080fd5b5056fea365627a7a723158200622a02c75aeb3d8cc0cb14d49d67baabf6e4baa74ecec886566aa6a052b53916c6578706572696d656e74616cf564736f6c63430005100040",
  "source": "pragma solidity ^0.5.16;\r\npragma experimental ABIEncoderV2;\r\n\r\ncontract MoibitStorage{\r\n\r\n    struct student{\r\n        string fileName;\r\n        string fileHash;\r\n        uint fileVersion;\r\n        bool lock;\r\n        string current_owner;\r\n    }\r\n\r\n    mapping(uint => student) public students;\r\n    mapping(address => string) public uniName;\r\n\r\n    event fileAdded(string fileName, uint aadharNumber);\r\n    event fileUnlocked(uint aadharNumber);\r\n    event fileLocked(uint aadharNumber);\r\n\r\n    function addingNewFile(string memory _fileName, string memory _fileHash, uint _fileVersion, uint _aadharNumber) public {\r\n        require(msg.sender != address(0), 'address is available...');\r\n        require(bytes(_fileHash).length > 0, 'Hash of file is required...');\r\n        require(bytes(_fileName).length > 0, 'Name of file is required...');\r\n        require(_aadharNumber > 0, 'Aadhar number of student is required...');\r\n        students[_aadharNumber] = student(_fileName, _fileHash, _fileVersion, false, '');\r\n        emit fileAdded(_fileName, _aadharNumber);\r\n    }\r\n\r\n    modifier onlyOwner(string memory _uniName){\r\n        require(keccak256(abi.encodePacked(uniName[msg.sender])) == keccak256(abi.encodePacked(_uniName)), \"You don't own the file \");\r\n        _;\r\n    }\r\n\r\n    function setCollege(string memory _uniName) public {\r\n        uniName[msg.sender] = _uniName;\r\n    }\r\n    \r\n    function checkAccess(uint _aadharNumber) public view returns(bool){\r\n        //need to add condtion which if the uni exists in the list or not\r\n\r\n        if(keccak256(abi.encodePacked(students[_aadharNumber].current_owner)) == keccak256(abi.encodePacked(uniName[msg.sender]))){\r\n            return false;\r\n        }\r\n        else if(students[_aadharNumber].lock == false){\r\n            return false;\r\n        }\r\n        else return true;\r\n    } \r\n\r\n    function getStudentFile(uint _aadharNumber) public view returns(student memory studentFile){\r\n        return students[_aadharNumber];\r\n    }\r\n\r\n    function getUni(uint _aadharNumber) public view returns(string memory uni){\r\n        return students[_aadharNumber].current_owner;\r\n    }\r\n\r\n    function lockStudentFile(uint _aadharNumber) public {\r\n        require(students[_aadharNumber].lock == false, 'File is already locked...');\r\n        require(keccak256(abi.encodePacked(students[_aadharNumber].current_owner)) == keccak256(abi.encodePacked('')), 'File is locked by someone else still...');\r\n        students[_aadharNumber].lock = true;\r\n        students[_aadharNumber].current_owner = uniName[msg.sender];\r\n        emit fileLocked(_aadharNumber);\r\n    }\r\n\r\n    function unlockStudentFile(uint _aadharNumber) public onlyOwner(students[_aadharNumber].current_owner){\r\n        students[_aadharNumber].lock = false;\r\n        students[_aadharNumber].current_owner = '';\r\n        emit fileUnlocked(_aadharNumber);\r\n    }\r\n}",
  "sourcePath": "C:/Users/Shameer/moibit_assignment/src/contracts/MoibitStorage.sol",
  "compiler": {
    "name": "solc",
    "version": "0.5.16+commit.9c3226ce.Emscripten.clang"
  },
  "schemaVersion": "3.3.4",
  "updatedAt": "2021-10-10T11:56:30.237Z",
  "networkType": "ethereum",
  "devdoc": {
    "methods": {}
  },
  "userdoc": {
    "methods": {}
  }
}