{
  "contractName": "MoibitStorage",
  "abi": [
    {
      "anonymous": false,
      "inputs": [
        {
          "indexed": false,
          "internalType": "string",
          "name": "fileName",
          "type": "string"
        },
        {
          "indexed": false,
          "internalType": "uint256",
          "name": "aadharNumber",
          "type": "uint256"
        }
      ],
      "name": "fileAdded",
      "type": "event"
    },
    {
      "anonymous": false,
      "inputs": [
        {
          "indexed": false,
          "internalType": "uint256",
          "name": "aadharNumber",
          "type": "uint256"
        }
      ],
      "name": "fileLocked",
      "type": "event"
    },
    {
      "anonymous": false,
      "inputs": [
        {
          "indexed": false,
          "internalType": "uint256",
          "name": "aadharNumber",
          "type": "uint256"
        }
      ],
      "name": "fileUnlocked",
      "type": "event"
    },
    {
      "constant": true,
      "inputs": [
        {
          "internalType": "uint256",
          "name": "",
          "type": "uint256"
        }
      ],
      "name": "students",
      "outputs": [
        {
          "internalType": "string",
          "name": "fileName",
          "type": "string"
        },
        {
          "internalType": "string",
          "name": "fileHash",
          "type": "string"
        },
        {
          "internalType": "bool",
          "name": "lock",
          "type": "bool"
        },
        {
          "internalType": "string",
          "name": "current_owner",
          "type": "string"
        }
      ],
      "payable": false,
      "stateMutability": "view",
      "type": "function"
    },
    {
      "constant": true,
      "inputs": [
        {
          "internalType": "address",
          "name": "",
          "type": "address"
        }
      ],
      "name": "uniName",
      "outputs": [
        {
          "internalType": "string",
          "name": "",
          "type": "string"
        }
      ],
      "payable": false,
      "stateMutability": "view",
      "type": "function"
    },
    {
      "constant": false,
      "inputs": [
        {
          "internalType": "string",
          "name": "_fileName",
          "type": "string"
        },
        {
          "internalType": "string",
          "name": "_fileHash",
          "type": "string"
        },
        {
          "internalType": "uint256",
          "name": "_aadharNumber",
          "type": "uint256"
        }
      ],
      "name": "addingNewFile",
      "outputs": [],
      "payable": false,
      "stateMutability": "nonpayable",
      "type": "function"
    },
    {
      "constant": false,
      "inputs": [
        {
          "internalType": "string",
          "name": "_uniName",
          "type": "string"
        }
      ],
      "name": "setCollege",
      "outputs": [],
      "payable": false,
      "stateMutability": "nonpayable",
      "type": "function"
    },
    {
      "constant": true,
      "inputs": [
        {
          "internalType": "uint256",
          "name": "_aadharNumber",
          "type": "uint256"
        }
      ],
      "name": "intialView",
      "outputs": [
        {
          "internalType": "string",
          "name": "access",
          "type": "string"
        }
      ],
      "payable": false,
      "stateMutability": "view",
      "type": "function"
    },
    {
      "constant": false,
      "inputs": [
        {
          "internalType": "uint256",
          "name": "_aadharNumber",
          "type": "uint256"
        }
      ],
      "name": "lockStudentFile",
      "outputs": [],
      "payable": false,
      "stateMutability": "nonpayable",
      "type": "function"
    },
    {
      "constant": false,
      "inputs": [
        {
          "internalType": "uint256",
          "name": "_aadharNumber",
          "type": "uint256"
        }
      ],
      "name": "unlockStudentFile",
      "outputs": [],
      "payable": false,
      "stateMutability": "nonpayable",
      "type": "function"
    }
  ],
  "bytecode": "0x608060405234801561001057600080fd5b506118a9806100206000396000f3fe608060405234801561001057600080fd5b506004361061007d5760003560e01c806348df677b1161005b57806348df677b146100ed57806374711c6d14610109578063895987e214610139578063b56ad869146101555761007d565b806306ead22e1461008257806319bafabc146100b557806326ded114146100d1575b600080fd5b61009c60048036036100979190810190611153565b610185565b6040516100ac94939291906115a8565b60405180910390f35b6100cf60048036036100ca9190810190611153565b61038a565b005b6100eb60048036036100e691908101906110d4565b610599565b005b61010760048036036101029190810190611153565b6107d1565b005b610123600480360361011e9190810190611153565b6109ed565b6040516101309190611556565b60405180910390f35b610153600480360361014e9190810190611093565b610ae2565b005b61016f600480360361016a919081019061106a565b610b39565b60405161017c9190611534565b60405180910390f35b6000602052806000526040600020600091509050806000018054600181600116156101000203166002900480601f0160208091040260200160405190810160405280929190818152602001828054600181600116156101000203166002900480156102315780601f1061020657610100808354040283529160200191610231565b820191906000526020600020905b81548152906001019060200180831161021457829003601f168201915b505050505090806001018054600181600116156101000203166002900480601f0160208091040260200160405190810160405280929190818152602001828054600181600116156101000203166002900480156102cf5780601f106102a4576101008083540402835291602001916102cf565b820191906000526020600020905b8154815290600101906020018083116102b257829003601f168201915b5050505050908060020160009054906101000a900460ff1690806003018054600181600116156101000203166002900480601f0160208091040260200160405190810160405280929190818152602001828054600181600116156101000203166002900480156103805780601f1061035557610100808354040283529160200191610380565b820191906000526020600020905b81548152906001019060200180831161036357829003601f168201915b5050505050905084565b6000151560008083815260200190815260200160002060020160009054906101000a900460ff161515146103f3576040517f08c379a00000000000000000000000000000000000000000000000000000000081526004016103ea906116c2565b60405180910390fd5b6040516020016104029061151f565b60405160208183030381529060405280519060200120600160003373ffffffffffffffffffffffffffffffffffffffff1673ffffffffffffffffffffffffffffffffffffffff1681526020019081526020016000206040516020016104679190611508565b60405160208183030381529060405280519060200120146104bd576040517f08c379a00000000000000000000000000000000000000000000000000000000081526004016104b490611622565b60405180910390fd5b600160008083815260200190815260200160002060020160006101000a81548160ff021916908315150217905550600160003373ffffffffffffffffffffffffffffffffffffffff1673ffffffffffffffffffffffffffffffffffffffff168152602001908152602001600020600080838152602001908152602001600020600301908054600181600116156101000203166002900461055e929190610e16565b507fd2e91334d2498287c7c1382c2cab747b5e240e8aa469e6a24aef657f7609f5d98160405161058e91906116e2565b60405180910390a150565b600073ffffffffffffffffffffffffffffffffffffffff163373ffffffffffffffffffffffffffffffffffffffff161415610609576040517f08c379a000000000000000000000000000000000000000000000000000000000815260040161060090611682565b60405180910390fd5b600082511161064d576040517f08c379a000000000000000000000000000000000000000000000000000000000815260040161064490611662565b60405180910390fd5b6000835111610691576040517f08c379a000000000000000000000000000000000000000000000000000000000815260040161068890611642565b60405180910390fd5b600081116106d4576040517f08c379a00000000000000000000000000000000000000000000000000000000081526004016106cb906116a2565b60405180910390fd5b6040518060800160405280848152602001838152602001600015158152602001604051806020016040528060008152508152506000808381526020019081526020016000206000820151816000019080519060200190610735929190610e9d565b506020820151816001019080519060200190610752929190610e9d565b5060408201518160020160006101000a81548160ff021916908315150217905550606082015181600301908051906020019061078f929190610e9d565b509050507fd9318aa0feca63cf06545a56fbc2cb5b36a05e5f60a464301d72226daadf9d6583826040516107c4929190611578565b60405180910390a1505050565b6000808281526020019081526020016000206003018054600181600116156101000203166002900480601f01602080910402602001604051908101604052809291908181526020018280546001816001161561010002031660029004801561087a5780601f1061084f5761010080835404028352916020019161087a565b820191906000526020600020905b81548152906001019060200180831161085d57829003601f168201915b50505050508060405160200161089091906114f1565b60405160208183030381529060405280519060200120600160003373ffffffffffffffffffffffffffffffffffffffff1673ffffffffffffffffffffffffffffffffffffffff1681526020019081526020016000206040516020016108f59190611508565b604051602081830303815290604052805190602001201461094b576040517f08c379a000000000000000000000000000000000000000000000000000000000815260040161094290611602565b60405180910390fd5b600080600084815260200190815260200160002060020160006101000a81548160ff0219169083151502179055506040518060200160405280600081525060008084815260200190815260200160002060030190805190602001906109b1929190610f1d565b507f34c2199a51f8208f3b6b271761f4e93b95a9134571137a7a62522a98569e27f1826040516109e191906116e2565b60405180910390a15050565b60606000151560008084815260200190815260200160002060020160009054906101000a900460ff16151514610ad2576000808381526020019081526020016000206003018054600181600116156101000203166002900480601f016020809104026020016040519081016040528092919081815260200182805460018160011615610100020316600290048015610ac65780601f10610a9b57610100808354040283529160200191610ac6565b820191906000526020600020905b815481529060010190602001808311610aa957829003601f168201915b50505050509050610add565b610adb82610be9565b505b919050565b80600160003373ffffffffffffffffffffffffffffffffffffffff1673ffffffffffffffffffffffffffffffffffffffff1681526020019081526020016000209080519060200190610b35929190610f1d565b5050565b60016020528060005260406000206000915090508054600181600116156101000203166002900480601f016020809104026020016040519081016040528092919081815260200182805460018160011615610100020316600290048015610be15780601f10610bb657610100808354040283529160200191610be1565b820191906000526020600020905b815481529060010190602001808311610bc457829003601f168201915b505050505081565b610bf1610f9d565b600080838152602001908152602001600020604051806080016040529081600082018054600181600116156101000203166002900480601f016020809104026020016040519081016040528092919081815260200182805460018160011615610100020316600290048015610ca75780601f10610c7c57610100808354040283529160200191610ca7565b820191906000526020600020905b815481529060010190602001808311610c8a57829003601f168201915b50505050508152602001600182018054600181600116156101000203166002900480601f016020809104026020016040519081016040528092919081815260200182805460018160011615610100020316600290048015610d495780601f10610d1e57610100808354040283529160200191610d49565b820191906000526020600020905b815481529060010190602001808311610d2c57829003601f168201915b505050505081526020016002820160009054906101000a900460ff16151515158152602001600382018054600181600116156101000203166002900480601f016020809104026020016040519081016040528092919081815260200182805460018160011615610100020316600290048015610e065780601f10610ddb57610100808354040283529160200191610e06565b820191906000526020600020905b815481529060010190602001808311610de957829003601f168201915b5050505050815250509050919050565b828054600181600116156101000203166002900490600052602060002090601f016020900481019282601f10610e4f5780548555610e8c565b82800160010185558215610e8c57600052602060002091601f016020900482015b82811115610e8b578254825591600101919060010190610e70565b5b509050610e999190610fc7565b5090565b828054600181600116156101000203166002900490600052602060002090601f016020900481019282601f10610ede57805160ff1916838001178555610f0c565b82800160010185558215610f0c579182015b82811115610f0b578251825591602001919060010190610ef0565b5b509050610f199190610fc7565b5090565b828054600181600116156101000203166002900490600052602060002090601f016020900481019282601f10610f5e57805160ff1916838001178555610f8c565b82800160010185558215610f8c579182015b82811115610f8b578251825591602001919060010190610f70565b5b509050610f999190610fc7565b5090565b60405180608001604052806060815260200160608152602001600015158152602001606081525090565b610fe991905b80821115610fe5576000816000905550600101610fcd565b5090565b90565b600081359050610ffb81611838565b92915050565b600082601f83011261101257600080fd5b81356110256110208261172a565b6116fd565b9150808252602083016020830185838301111561104157600080fd5b61104c8382846117e5565b50505092915050565b6000813590506110648161184f565b92915050565b60006020828403121561107c57600080fd5b600061108a84828501610fec565b91505092915050565b6000602082840312156110a557600080fd5b600082013567ffffffffffffffff8111156110bf57600080fd5b6110cb84828501611001565b91505092915050565b6000806000606084860312156110e957600080fd5b600084013567ffffffffffffffff81111561110357600080fd5b61110f86828701611001565b935050602084013567ffffffffffffffff81111561112c57600080fd5b61113886828701611001565b925050604061114986828701611055565b9150509250925092565b60006020828403121561116557600080fd5b600061117384828501611055565b91505092915050565b611185816117af565b82525050565b600061119682611776565b6111a08185611781565b93506111b08185602086016117f4565b6111b981611827565b840191505092915050565b60006111cf82611776565b6111d98185611792565b93506111e98185602086016117f4565b80840191505092915050565b60006112008261176b565b61120a8185611781565b935061121a8185602086016117f4565b61122381611827565b840191505092915050565b60008154600181166000811461124b5760018114611270576112b4565b607f600283041661125c8187611792565b955060ff19831686528086019350506112b4565b6002820461127e8187611792565b955061128985611756565b60005b828110156112ab5781548189015260018201915060208101905061128c565b82880195505050505b505092915050565b60006112c9601783611781565b91507f596f7520646f6e2774206f776e207468652066696c65200000000000000000006000830152602082019050919050565b6000611309602783611781565b91507f46696c65206973206c6f636b656420627920736f6d656f6e6520656c7365207360008301527f74696c6c2e2e2e000000000000000000000000000000000000000000000000006020830152604082019050919050565b600061136f601b83611781565b91507f4e616d65206f662066696c652069732072657175697265642e2e2e00000000006000830152602082019050919050565b60006113af600083611792565b9150600082019050919050565b60006113c9601b83611781565b91507f48617368206f662066696c652069732072657175697265642e2e2e00000000006000830152602082019050919050565b6000611409601783611781565b91507f6164647265737320697320617661696c61626c652e2e2e0000000000000000006000830152602082019050919050565b6000611449602783611781565b91507f416164686172206e756d626572206f662073747564656e74206973207265717560008301527f697265642e2e2e000000000000000000000000000000000000000000000000006020830152604082019050919050565b60006114af601983611781565b91507f46696c6520697320616c7265616479206c6f636b65642e2e2e000000000000006000830152602082019050919050565b6114eb816117db565b82525050565b60006114fd82846111c4565b915081905092915050565b6000611514828461122e565b915081905092915050565b600061152a826113a2565b9150819050919050565b6000602082019050818103600083015261154e81846111f5565b905092915050565b60006020820190508181036000830152611570818461118b565b905092915050565b60006040820190508181036000830152611592818561118b565b90506115a160208301846114e2565b9392505050565b600060808201905081810360008301526115c281876111f5565b905081810360208301526115d681866111f5565b90506115e5604083018561117c565b81810360608301526115f781846111f5565b905095945050505050565b6000602082019050818103600083015261161b816112bc565b9050919050565b6000602082019050818103600083015261163b816112fc565b9050919050565b6000602082019050818103600083015261165b81611362565b9050919050565b6000602082019050818103600083015261167b816113bc565b9050919050565b6000602082019050818103600083015261169b816113fc565b9050919050565b600060208201905081810360008301526116bb8161143c565b9050919050565b600060208201905081810360008301526116db816114a2565b9050919050565b60006020820190506116f760008301846114e2565b92915050565b6000604051905081810181811067ffffffffffffffff8211171561172057600080fd5b8060405250919050565b600067ffffffffffffffff82111561174157600080fd5b601f19601f8301169050602081019050919050565b60008190508160005260206000209050919050565b600081519050919050565b600081519050919050565b600082825260208201905092915050565b600081905092915050565b60006117a8826117bb565b9050919050565b60008115159050919050565b600073ffffffffffffffffffffffffffffffffffffffff82169050919050565b6000819050919050565b82818337600083830152505050565b60005b838110156118125780820151818401526020810190506117f7565b83811115611821576000848401525b50505050565b6000601f19601f8301169050919050565b6118418161179d565b811461184c57600080fd5b50565b611858816117db565b811461186357600080fd5b5056fea365627a7a723158207cb3105593b589a00bbd1e32f31e29bc65b7170c3ad9994195be8297763ac6426c6578706572696d656e74616cf564736f6c63430005100040",
  "source": "pragma solidity ^0.5.16;\r\npragma experimental ABIEncoderV2;\r\n\r\ncontract MoibitStorage{\r\n\r\n    struct student{\r\n        string fileName;\r\n        string fileHash;\r\n        bool lock;\r\n        string current_owner;\r\n    }\r\n\r\n    mapping(uint => student) public students;\r\n    mapping(address => string) public uniName;\r\n\r\n    event fileAdded(string fileName, uint aadharNumber);\r\n    event fileUnlocked(uint aadharNumber);\r\n    event fileLocked(uint aadharNumber);\r\n\r\n    function addingNewFile(string memory _fileName, string memory _fileHash, uint _aadharNumber) public {\r\n        require(msg.sender != address(0), 'address is available...');\r\n        require(bytes(_fileHash).length > 0, 'Hash of file is required...');\r\n        require(bytes(_fileName).length > 0, 'Name of file is required...');\r\n        require(_aadharNumber > 0, 'Aadhar number of student is required...');\r\n        students[_aadharNumber] = student(_fileName, _fileHash, false, '');\r\n        emit fileAdded(_fileName, _aadharNumber);\r\n    }\r\n\r\n    modifier onlyOwner(string memory _uniName){\r\n        require(keccak256(abi.encodePacked(uniName[msg.sender])) == keccak256(abi.encodePacked(_uniName)), \"You don't own the file \");\r\n        _;\r\n    }\r\n\r\n    function setCollege(string memory _uniName) public {\r\n        uniName[msg.sender] = _uniName;\r\n    }\r\n    \r\n    function intialView(uint _aadharNumber) public view returns(string memory access){\r\n        if(students[_aadharNumber].lock != false){\r\n            return students[_aadharNumber].current_owner;\r\n        }\r\n        else{\r\n            _getStudentFile(_aadharNumber);\r\n        }\r\n    } \r\n\r\n    function _getStudentFile(uint _aadharNumber) internal view returns(student memory studentFile){\r\n        return students[_aadharNumber];\r\n    }\r\n\r\n    function lockStudentFile(uint _aadharNumber) public {\r\n        require(students[_aadharNumber].lock == false, 'File is already locked...');\r\n        require(keccak256(abi.encodePacked(uniName[msg.sender])) == keccak256(abi.encodePacked('')), 'File is locked by someone else still...');\r\n        students[_aadharNumber].lock = true;\r\n        students[_aadharNumber].current_owner = uniName[msg.sender];\r\n        emit fileLocked(_aadharNumber);\r\n    }\r\n\r\n    function unlockStudentFile(uint _aadharNumber) public onlyOwner(students[_aadharNumber].current_owner){\r\n        students[_aadharNumber].lock = false;\r\n        students[_aadharNumber].current_owner = '';\r\n        emit fileUnlocked(_aadharNumber);\r\n    }\r\n}",
  "sourcePath": "C:/Users/Shameer/moibit_assignment/src/contracts/MoibitStorage.sol",
  "compiler": {
    "name": "solc",
    "version": "0.5.16+commit.9c3226ce.Emscripten.clang"
  },
  "schemaVersion": "3.3.4",
  "updatedAt": "2021-10-05T10:05:38.605Z",
  "networkType": "ethereum",
  "devdoc": {
    "methods": {}
  },
  "userdoc": {
    "methods": {}
  }
}